:03000000020426D1
:0C042600787FE4F6D8FD75811502046DA6
:0A0585003F065B4F666D7D077F6F38
:03059700010C0054
:0B057A00EF1FAC0670011E4C70F62253
:10035900C3EE64809480503C750840EF1F70011E05
:100369006307FF6306FFAD07AC06EC1202068F14A4
:100379008E138D128C11E4FFFE7DC87C40AB14AA4C
:1003890013A912A8111200FBE4FBFAF9783F120035
:100399000A12023FE50CFB3395E0FA7C037DE8AFD6
:1003A90003FE1202C074852FF58274053EF583E4BD
:1003B90093F5087C037DE8AF03AE021202C0AA04DC
:1003C900AB057D647C00AF03AE021202C074852FB9
:1003D900F58274053EF583E493F5097D647C00AFED
:1003E90003AE021202C0AA04AB057D0A7C00AF036A
:1003F900AE021202C074852FF58274053EF583E4BE
:1004090093F50A7D0A7C00AF03AE021202C074851F
:0C0419002DF58274053CF583E493F50B8F
:0104250022B4
:1004B200E4FDED14600E146013146014240370162E
:1004C200C2A28002D2A2C2A3C2A4800AC2A2800295
:1004D200D2A2D2A3C2A4C374039D2408F8E6F58075
:0E04E2007F647E0012057AE4F5800DBD04C42F
:0104F00022E9
:08058F001203591204B280F8B6
:10054000D3EF9400EE940040147D6E7C00ED1D709E
:0D055000011CED4C70F7EF1F70E61E80E3FC
:01055D00227B
:10051B00C2B77B46AF031BEF70FAD2B7E4FB30B721
:10052B00117F017E001205400BEBD3940540EF7F4A
:04053B0000227F011A
:01053F002299
:10055E00E4FEC2B70515EF1392B7AD151515ED7084
:0B056E00F9D2B7EFC313FF0EBE08E781
:01057900225F
:1004F1007F087E00C2B7050EE50E7002050DD2B76A
:10050100050EE50E7002050D050EE50E7002050DD6
:09051100EF1F70011EEF4E70DBBC
:01051A0022BE
:100003000202ABE86480F8E933E83360110460F07E
:10001300ED33EC337009E8FCE9FDEAFEEBFF220463
:1000230060DED3EB9FEA9EE99DE8C2E78CF0C2F75E
:1000330095F0400CE8CCF8E9CDF9EACEFAEBCFFB2A
:1000430012027685D0F05804700320D5B3E804700B
:10005300075002B2D50202B592D5EC0460F7E4CCA6
:10006300C0E0C398F8603B94186008400DD0E0FBF3
:1000730002028DE4FBFAC9FC8028E830E406E4C9F7
:10008300FBE4CAFCE830E305E4C9CACBFCE8540747
:100093006010F8C3E913F9EA13FAEB13FBEC13FC52
:1000A300D8F130F52FC3E49CFCEF9BFFEE9AFEEDF5
:1000B30099FDD0E0FBEF4E4D4C701222DB030202A0
:1000C300B2EC2CFCEF33FFEE33FEED33FDED30E706
:1000D300EB02028DEF2BFFEE3AFEED39FDD0E0FB94
:1000E30050130BBB00030202B5ED13FDEE13FEEF3D
:0800F30013FFEC13FC02028D67
:1000FB00EC4D6011E8497017ED33EC3304600DE4FF
:10010B00FCFFFEFD22E933E8330470F80202AB1268
:10011B00027658046009E4CC248150062850090269
:10012B0002B52840030202B2C0E0EB4A7044B9802A
:10013B0006D0E0FB0202A1EF4E701CBD8008EBFF66
:10014B00EAFEE9FD80EBE98DF0A4FEE5F00201E4A7
:10015B00E9CDF9EAFEEBFFEF89F0A4FCE5F0CE89DF
:10016B00F0A42EFFE435F0CD89F0A42DFEE435F09C
:10017B008067EF4E7005BD80D780C3EF8BF0A4ACCA
:10018B00F0EE8BF0A42CFCE435F0F8EF8AF0A42C05
:10019B00E5F038FCE433CB8DF0A42CFCE5F03BF818
:1001AB00EE8AF0A42CFCE5F038F8E433CF89F0A408
:1001BB002CFCE5F038CF3400CE89F0A42FFFE5F00E
:1001CB003EFEE433C98DF0A42EFEE5F039CD8AF066
:1001DB00A42FFFE5F03EFEE43DFD33D0E0FB5007DE
:1001EB000BBB000F0202B5EC2CFCEF33FFEE33FE22
:0601FB00ED33FD02028D50
:1002010075F020800E75F010800575F0087D007E78
:10021100007F003392D530D5031202F6EC33401043
:10022100EF33FFEE33FEED33FDEC33FCD5F0ED2281
:0E023100E5F0247EA2D513CC92E7CDCEFF22BD
:10023F00EDD2E7CD33EC3392D524814006E4FFFEB7
:10024F00FDFC22FCE4CFCECDCC24E0501174FF8016
:10025F00EDC3CC13CCCD13CDCE13CECF13CF0470B3
:07026F00F030D5DE0202F6BB
:10027600E9D2E7C933E833F892D5EDD2E7CD33ECCE
:0702860033FC5002B2D52247
:10028D00EC30E7100FBF000C0EBE00080DBD0004D2
:10029D000BEB6014A2D5EB13FCED92E7FD2274FF7E
:1002AD00FCFDFEFF22E480F8A2D574FF13FC7D80D7
:0302BD00E480EFEB
:1004320002058FE493A3F8E493A34003F68001F24C
:1004420008DFF48029E493A3F85407240CC8C333CB
:10045200C4540F4420C8834004F456800146F6DF9A
:10046200E4800B0102040810204080900597E47E8E
:10047200019360BCA3FF543F30E509541FFEE4938F
:10048200A360010ECF54C025E060A840B8E493A356
:10049200FAE493A3F8E493A3C8C582C8CAC583CA81
:1004A200F0A3C8C582C8CAC583CADFE9DEE780BE39
:01059A000060
:1002C000C2D5EC30E709B2D5E4C39DFDE49CFCEE59
:1002D00030E715B2D5E4C39FFFE49EFE120304C3CA
:1002E000E49DFDE49CFC800312030430D507C3E4C5
:0602F0009FFFE49EFE22C8
:0E02F600C3E49FFFE49EFEE49DFDE49CFC2219
:10030400BC000BBE0029EF8DF084FFADF022E4CCDD
:10031400F875F008EF2FFFEE33FEEC33FCEE9DECA6
:10032400984005FCEE9DFE0FD5F0E9E4CEFD22EDEC
:10033400F8F5F0EE8420D21CFEADF075F008EF2F36
:10034400FFED33FD4007985006D5F0F222C398FD27
:050354000FD5F0EA22C4
:00000001FF
