:030000000200BF3C
:0C00BF00787FE4F6D8FD75810A02008C01
:10009F003F065B4F666D7D077F6F777C395E7971A9
:0100AF000050
:0E00B0008E088F09EF1FAC0670011E4C70F613
:0100BE00221F
:10000300E4FBFA75900FE590640F607C7FE87E0354
:100013001200B0E590640F606F75900FAF90EF24FE
:10002300F5601024FE601114601324077012E4F5C8
:100033000A800D750A018008750A028003750A0398
:100043007590F0AF90EF2450601124E0601124F01C
:10005300601124707013850A0A800E74048006747C
:10006300088002740C250AF50AC3EB9432EA648013
:1000730094805014E59064F0600E7FE87E031200D4
:08008300B00BBB00010A80E193
:01008B002252
:10008C00C2A2C2A3C2A4120003E50A90009F93F57A
:03009C008080F36E
:00000001FF
