:03000000020003F8
:0C000300787FE4F6D8FD75810B02004AFE
:100113003F065B4F666D7D077F6F777C395E797134
:0101230000DB
:0801240002080000020A03E8D2
:10008F00C2A2C2A3C2A4E4F508F509E4FEFFE50B82
:10009F00150BAC0A7002150A4C70F374132FF5820E
:1000AF0074013EF583E493F5800FBF00010EEF64FA
:1000BF00114E70DAE508703CE50914601914601AE6
:1000CF0014601F14602024FE602424067026D2A220
:1000DF00C2A3C2A4801EC2A28002D2A2D2A3C2A473
:1000EF008012C2A28002D2A2C2A3D2A48006D2A240
:1000FF00D2A3D2A40509E5097002050864074508D3
:04010F0070898082F1
:10000F0002008FE493A3F8E493A34003F68001F278
:10001F0008DFF48029E493A3F85407240CC8C333F2
:10002F00C4540F4420C8834004F456800146F6DFC1
:10003F00E4800B0102040810204080900124E47E2C
:10004F00019360BCA3FF543F30E509541FFEE493B6
:10005F00A360010ECF54C025E060A840B8E493A37D
:10006F00FAE493A3F8E493A3C8C582C8CAC583CAA8
:10007F00F0A3C8C582C8CAC583CADFE9DEE780BE60
:01012C0000D2
:00000001FF
