:03000000020003F8
:0C000300787FE4F6D8FD75810C02004AFD
:0400FC00020BEA60A9
:0E00ED008E098F0AEF1FAC0670011E4C70F6D4
:0100FB0022E2
:10008F0075A0FEE4F508AF0CAE0B1200EDAFA07833
:10009F0001EF08800123D8FDF5A00508E508C394FA
:1000AF000740E3D3E50C94B8E50B6480948B400CC8
:1000BF007418250CF50C74FC350BF50BE4F508E5FD
:1000CF0008C3940750BAAF0CAE0B1200EDAFA07877
:0E00DF0001EF08800103D8FDF5A0050880E1BF
:10000F0002008FE493A3F8E493A34003F68001F278
:10001F0008DFF48029E493A3F85407240CC8C333F2
:10002F00C4540F4420C8834004F456800146F6DFC1
:10003F00E4800B01020408102040809000FCE47E55
:10004F00019360BCA3FF543F30E509541FFEE493B6
:10005F00A360010ECF54C025E060A840B8E493A37D
:10006F00FAE493A3F8E493A3C8C582C8CAC583CAA8
:10007F00F0A3C8C582C8CAC583CADFE9DEE780BE60
:0101000000FE
:00000001FF
