:03000000020003F8
:0C000300787FE4F6D8FD75811502004AF4
:1000DB00070800003E41413E00070F7FBFEFF7FBD3
:0200EB00FDFE18
:0B00EE00EF1FAC0670011E4C70F622E4
:1000BB00C2B6E4FEEFC4131313540124FF92B4D25F
:0F00CB00B60000C2B60EBE08EBD2B50000C2B53B
:0100DA002203
:10008F007F801200BB75807FE4FD740F2DF8E6F5BD
:10009F008074082DF8E6FF1200BB7F647E0012000B
:0C00AF00EEE4FF1200BB0DBD08E080DC99
:10000F0002008FE493A3F8E493A34003F68001F278
:10001F0008DFF48029E493A3F85407240CC8C333F2
:10002F00C4540F4420C8834004F456800146F6DFC1
:10003F00E4800B01020408102040809000DBE47E76
:10004F00019360BCA3FF543F30E509541FFEE493B6
:10005F00A360010ECF54C025E060A840B8E493A37D
:10006F00FAE493A3F8E493A3C8C582C8CAC583CAA8
:10007F00F0A3C8C582C8CAC583CADFE9DEE780BE60
:0100ED000012
:00000001FF
