:03000000020003F8
:0C000300787FE4F6D8FD75810B02004AFE
:100104003F065B4F666D7D077F6F777C395E797143
:0101140000EA
:0801200002080000020A27108A
:0B011500EF1FAC0670011E4C70F622BC
:10008F00E4FDEDB40800504D90009EF8282873024F
:10009F0000DE0200DA0200D20200CE0200C6020029
:1000AF00C20200BA0200B6C2A28002D2A2C2A3C28A
:1000BF00A48022C2A28002D2A2D2A3C2A48016C25E
:1000CF00A28002D2A2C2A3D2A4800AC2A28002D26C
:1000DF00A2D2A3D2A4ED90010493F580E50B150BEA
:1000EF00AE0A7002150AFF120115E4F5800DED64DA
:0500FF0008708F808BEA
:0301290002008F42
:10000F00020129E493A3F8E493A34003F68001F2DD
:10001F0008DFF48029E493A3F85407240CC8C333F2
:10002F00C4540F4420C8834004F456800146F6DFC1
:10003F00E4800B0102040810204080900120E47E30
:10004F00019360BCA3FF543F30E509541FFEE493B6
:10005F00A360010ECF54C025E060A840B8E493A37D
:10006F00FAE493A3F8E493A3C8C582C8CAC583CAA8
:10007F00F0A3C8C582C8CAC583CADFE9DEE780BE60
:0101280000D6
:00000001FF
